:100000000C94A5000C94BA000C94BA000C94BA009D
:100010000C94BA000C94BA000C94BA000C94BA0078
:100020000C94BA000C94BA000C94BA000C94BA0068
:100030000C94BA000C94BA000C94BA000C94BA0058
:100040000C94BA000C94BA000C94BA000C94BA0048
:100050000C94BA00F000090122013B015301530145
:1000600053015301530153015301530153015301F0
:1000700053015301530153015301530153015301E0
:1000800053015301530153015301530153015301D0
:1000900053015301F000090122013B016001790184
:1000A0009201AB01C301C301C301C301C301C30179
:1000B000C301C301C301C301C301C301C301C30120
:1000C000C301C301C301C301C301C301C301C30110
:1000D000C301C301C301C301C301C30160017901AD
:1000E0009201AB01CF01D101D301D501D601D601D7
:1000F000D601D601D601D601D601D601D601D60148
:10010000D601D601D601D601D601D601D601D60137
:10011000D601D601D601D601D601D601D601D60127
:10012000D601D601CF01D101D301D5010B041004B2
:1001300015041A041F042304270494049E04A8042D
:10014000B204BC04C604D004DA0411241FBECFE5F7
:10015000D8E0DEBFCDBF10E0A0E6B0E0ECE7FDE008
:1001600002C005900D92A037B107D9F70E94720323
:100170000C94BC060C94000086B1806486B9349B54
:10018000FECF86B1806186B98AE18A95F1F700C019
:1001900084B195B1089540E060E081E60E94E400FA
:1001A00087E886B980E487B987B18E7F87B987B140
:1001B0008D7F87B987B18B7F87B987B1877F87B9F3
:1001C00087B18F7E87B9089590E0FC01E154F10971
:1001D000E432F10508F067C0E65DFF4F0C94A70616
:1001E000413059F42AB381E090E002C0880F991F92
:1001F0006A95E2F7822B8ABB08952AB381E090E0EA
:1002000002C0880F991F6A95E2F7809582238ABB06
:100210000895413059F427B381E090E002C0880F7F
:10022000991F6A95E2F7822B87BB089527B381E077
:1002300090E002C0880F991F6A95E2F780958223AB
:1002400087BB0895413059F424B381E090E002C0A7
:10025000880F991F6A95E2F7822B84BB089524B317
:1002600081E090E002C0880F991F6A95E2F78095BF
:10027000822384BB0895413059F421B381E090E09A
:1002800002C0880F991F6A95E2F7822B81BB0895FF
:1002900021B381E090E002C0880F991F6A95E2F7D0
:1002A0008095822381BB089590E0FC01E154F1091F
:1002B000E432F10508F067C0E25BFF4F0C94A7063B
:1002C00041110CC02BB381E090E002C0880F991F50
:1002D0006A95E2F7809582238BBB08952BB381E06A
:1002E00090E002C0880F991F6A95E2F7822B8BBBC2
:1002F000089541110CC028B381E090E002C0880F3E
:10030000991F6A95E2F78095822388BB089528B3E8
:1003100081E090E002C0880F991F6A95E2F7822B76
:1003200088BB089541110CC025B381E090E002C064
:10033000880F991F6A95E2F78095822385BB0895FF
:1003400025B381E090E002C0880F991F6A95E2F71B
:10035000822B85BB089541110CC022B381E090E04F
:1003600002C0880F991F6A95E2F78095822382BBAD
:10037000089522B381E090E002C0880F991F6A952A
:10038000E2F7822B82BB089590E0FC01E154F10971
:10039000E432F10558F4EE58FF4F0C94A7066BBBFE
:1003A000089568BB089565BB089562BB089541E058
:1003B00061E083E40E94540189EF90E00197F1F736
:1003C00000C0000040E061E083E40E945401089511
:1003D000CF93C82F40E060E083E40E9454016C2F6B
:1003E00082E40E94C4010E94D701CF91089541E0A8
:1003F00064E082E40E94E40041E065E082E40E945F
:10040000E40041E066E082E40E94E40041E067E04D
:1004100082E40E94E40041E060E083E40E94E400A2
:1004200041E061E083E40E94E4008FE097E20197FD
:10043000F1F700C0000080E20E94E80180E20E9423
:10044000E80180E80E94E8019DE09A95F1F700003C
:1004500080E00E94E80180EF0E94E8018DE08A952B
:10046000F1F7000080E00E94E80180E10E94E801CD
:1004700083EF91E00197F1F700C0000080E00E9457
:10048000E80180E40E94E8010895CF93C82F41E07D
:1004900060E083E40E9454016C2F607F82E40E943C
:1004A000C4010E94D70189EF90E00197F1F700C0E5
:1004B00000006C2F6295607F82E40E94C4010E945C
:1004C000D70183EF91E00197F1F700C00000CF91D1
:1004D0000895CF93DF93EC0103C00E94450221965B
:1004E00088818111FACFDF91CF910895CF93811147
:1004F000605CC0E8C60F8C2F807F0E94E8018C2FC3
:100500008295807F0E94E801CF9108959C0141E08F
:10051000892B09F040E050E00DC04F5F5F4FADEC1C
:10052000BCEC0E94AD069C01369527953695279523
:10053000369527952115310581F7CA0108950F9346
:100540001F93CF93DF93CDB7DEB760970FB6F894C4
:10055000DEBF0FBECDBF8C010E948602FC0140E0D1
:1005600050E031C09801ADECBCEC0E94AD06969510
:10057000879596958795969587959C01220F331FB1
:10058000880F991F880F991F880F991F820F931F3B
:100590009801281B390BC901A1E0B0E0AC0FBD1FC9
:1005A000A40FB51F805D8C939801ADECBCEC0E944C
:1005B000AD068C0116950795169507951695079526
:1005C00031974F5F5F4F309769F6E1E0F0E0EC0F55
:1005D000FD1FE40FF51F1082CA01019720E030E0F3
:1005E00013C0A1E0B0E0AC0FBD1FA20FB31F4C9130
:1005F000E1E0F0E0EC0FFD1FE80FF91F50815C9384
:1006000040832F5F3F4F01972817390750F300E0D1
:1006100010E00AC0811104C080E30E94450202C0BC
:100620000E9445020F5F1F4FE1E0F0E0EC0FFD1F5D
:10063000E00FF11F80818111EDCF60960FB6F89425
:10064000DEBF0FBECDBFDF91CF911F910F910895F7
:10065000CF93DF93C82FD62F41E00E94E40041E002
:100660006D2F8C2F0E945401DF91CF910895CF936D
:10067000DF93C82FD62F41E00E94E40040E06D2FA9
:100680008C2F0E945401DF91CF9108950F931F93F7
:10069000CF93DF93082F162FC0E0D0E01BC0612F4F
:1006A000802F0E9428032FE986E891E021508040A6
:1006B0009040E1F700C00000612F802F0E943703B7
:1006C0002FE986E891E0215080409040E1F700C09A
:1006D00000002196C330D10514F3DF91CF911F9113
:1006E0000F910895CF93DF93CDB7DEB764970FB620
:1006F000F894DEBF0FBECDBF41E064E083E60E9408
:10070000E40041E065E083E60E94E40041E064E04B
:1007100083E60E94540140E065E083E60E945401B4
:100720000E94E60483EC99E00E94F90483E00E94B1
:100730008A0462E083E00E9434040E94CB000E949D
:10074000F7010E94FC0480E1E0E6F0E0DE01119692
:1007500001900D928A95E1F780E29DE39A8B898B57
:1007600080E290E09C8B8B8B2FEF80E792E0215012
:1007700080409040E1F700C00000CE0101960E9449
:10078000690263E081E00E947602CE0141960E94F8
:1007900069022FEF84E39CE0215080409040E1F714
:1007A00000C000000E94BC00BC0180E090E00E94FC
:1007B000AC0526EF38E24CE950E40E943A0620E00E
:1007C00030E040E251E40E940B050E947D056B0180
:1007D0007C018B0167E081E00E947602C6010E94E5
:1007E0009F020931110520F067E084E60E9446036C
:1007F0000E9407058235E1F781E40E9403050E940B
:10080000070590E0FC01F097E730F10518F5EA568E
:10081000FF4F0C94A70662E083E60E9428031AC0EB
:100820008BEB90E00E94F60415C08DE790E00E94EB
:10083000F60410C062E083E60E9437030BC080E438
:100840000E94E40407C080E80E94E40403C080EC36
:100850000E94E4042FE788E391E02150804090401B
:10086000E1F700C0000095CF813061F593B7977F25
:1008700093BF93B7906493BF99B79E7F99BF99B781
:100880009D7F99BF98B79E7F98BF98B79D7F98BF6F
:10089000623059F0633081F0611114C093B79F7ECC
:1008A00093BF93B79F7D93BF0DC093B79F7E93BFB8
:1008B00093B7906293BF06C093B7906193BF93B70D
:1008C000906293BF833001F583B7886083BF83B79D
:1008D000806483BF623059F0633081F0611114C0CD
:1008E00083B78F7E83BF83B78F7D83BF0DC083B7F0
:1008F0008F7E83BF83B7806283BF06C083B780616A
:1009000083BF83B7806283BF41E063E082E60E94D9
:10091000E400089590E08830910508F054C0FC018F
:10092000E356FF4F0C94A70683B78E7F83BF83B730
:100930008D7F83BF83B78B7F83BF089583B781602B
:1009400083BF83B78D7F83BF83B78B7F83BF0895BA
:1009500083B78E7F83BF83B7826083BF83B78B7F6C
:1009600083BF089583B7816083BF83B7826083BFED
:1009700083B78B7F83BF089583B78E7F83BF83B791
:100980008D7F83BF83B7846083BF089583B7816001
:1009900083BF83B78D7F83BF83B7846083BF089590
:1009A00083B78E7F83BF83B7826083BF83B7846042
:1009B00083BF089583B7816083BF83B7826083BF9D
:1009C00083B7846083BF08958CBF089541E065E0DC
:1009D00084E60E94E4001DBC1CBC83EC99E097BD3A
:1009E00086BD82E88FBD8BE18EBD08959BBD8ABD1B
:1009F000089597BD86BD089588E18AB986EA80BDCD
:100A000083E389B908955D9BFECF8CB908955F9B00
:100A1000FECF8CB108950E941F050C9400060E9421
:100A2000F90558F00E94F20540F029F45F3F29F0E3
:100A30000C94E90551110C9434060C94EF050E94B6
:100A4000110668F39923B1F3552391F3951B550BC8
:100A5000BB27AA2762177307840738F09F5F5F4F91
:100A6000220F331F441FAA1FA9F335D00E2E3AF0D0
:100A7000E0E832D091505040E695001CCAF72BD0E8
:100A8000FE2F29D0660F771F881FBB1F2617370739
:100A90004807AB07B0E809F0BB0B802DBF01FF276B
:100AA00093585F4F3AF09E3F510578F00C94E9055A
:100AB0000C9434065F3FE4F3983ED4F38695779523
:100AC0006795B795F7959F5FC9F7880F911D969524
:100AD000879597F90895E1E0660F771F881FBB1F80
:100AE000621773078407BA0720F0621B730B840B2D
:100AF000BA0BEE1F88F7E09508950E94190688F05A
:100B00009F5798F0B92F9927B751B0F0E1F0660FD1
:100B1000771F881F991F1AF0BA95C9F714C0B13012
:100B200091F00E943306B1E008950C943306672FCC
:100B3000782F8827B85F39F0B93FCCF38695779541
:100B40006795B395D9F73EF490958095709561952A
:100B50007F4F8F4F9F4F0895E89409C097FB3EF455
:100B600090958095709561957F4F8F4F9F4F9923FA
:100B7000A9F0F92F96E9BB279395F6958795779578
:100B80006795B795F111F8CFFAF4BB0F11F460FF38
:100B90001BC06F5F7F4F8F4F9F4F16C0882311F090
:100BA00096E911C0772321F09EE8872F762F05C0A4
:100BB000662371F096E8862F70E060E02AF09A953F
:100BC000660F771F881FDAF7880F9695879597F934
:100BD000089597F99F6780E870E060E008959FEFBF
:100BE00080EC089500240A941616170618060906C4
:100BF000089500240A941216130614060506089593
:100C0000092E0394000C11F4882352F0BB0F40F41A
:100C1000BF2B11F460FF04C06F5F7F4F8F4F9F4F5A
:100C2000089557FD9058440F551F59F05F3F71F0DC
:100C30004795880F97FB991F61F09F3F79F0879543
:100C40000895121613061406551FF2CF4695F1DFCC
:100C500008C0161617061806991FF1CF869571055C
:100C6000610508940895E894BB2766277727CB0190
:100C700097F908950E944D060C9400060E94F20513
:100C800038F00E94F90520F0952311F00C94E90545
:100C90000C94EF0511240C9434060E94110670F395
:100CA000959FC1F3950F50E0551F629FF001729F11
:100CB000BB27F00DB11D639FAA27F00DB11DAA1F20
:100CC000649F6627B00DA11D661F829F2227B00D6D
:100CD000A11D621F739FB00DA11D621F839FA00DF8
:100CE000611D221F749F3327A00D611D231F849F48
:100CF000600D211D822F762F6A2F11249F5750409F
:100D00009AF0F1F088234AF0EE0FFF1FBB1F661F19
:100D1000771F881F91505040A9F79E3F510580F0E2
:100D20000C94E9050C9434065F3FE4F3983ED4F349
:100D3000869577956795B795F795E7959F5FC1F786
:100D4000FE2B880F911D9695879597F90895EE0FC4
:100D5000FF1F0590F491E02D0994A29FB001B39F6D
:100D6000C001A39F700D811D1124911DB29F700DB4
:0C0D7000811D1124911D0895F894FFCFFF
:100D7C0048656C6C6F21726F6F6D2054656D7000DF
:00000001FF
