:100000000C94C4000C94D9000C94D9000C94D90021
:100010000C94D9000C94D9000C94D9000C94D900FC
:100020000C94D9000C94D9000C94D9000C94D900EC
:100030000C94D9000C94D9000C94D9000C94D900DC
:100040000C94D9000C94D9000C94D9000C94D900CC
:100050000C94D900E7000001190132014A014A015C
:100060004A014A014A014A014A014A014A014A0138
:100070004A014A014A014A014A014A014A014A0128
:100080004A014A014A014A014A014A014A014A0118
:100090004A014A01E70000011901320156015801E5
:1000A0005A015C015D015D015D015D015D015D0164
:1000B0005D015D015D015D015D015D015D015D0150
:1000C0005D015D015D015D015D015D015D015D0140
:1000D0005D015D015D015D015D015D01560158013C
:1000E0005A015C0169016B016D016F0170017001C2
:1000F0007001700170017001700170017001700178
:100100007001700170017001700170017001700167
:100110007001700170017001700170017001700157
:100120007001700169016B016D016F017D01910129
:10013000A501B901CD01CD01CD01CD01CD01CD018B
:10014000CD01CD01CD01CD01CD01CD01CD01CD013F
:10015000CD01CD01CD01CD01CD01CD01CD01CD012F
:10016000CD01CD01CD01CD01CD01CD017D019101AB
:10017000A501B9013A02450250025B026602710212
:100180007C02870292029D0211241FBECFE5D8E0B7
:10019000DEBFCDBF10E0A0E6B0E0EEE7F5E002C0C4
:1001A00005900D92A037B107D9F70E9428020C9450
:1001B000BD020C94000090E0FC01E154F109E4322E
:1001C000F10508F067C0E65DFF4F0C94B7024111DE
:1001D0000CC02BB381E090E002C0880F991F6A9594
:1001E000E2F7809582238BBB08952BB381E090E0EA
:1001F00002C0880F991F6A95E2F7822B8BBB089586
:1002000041110CC028B381E090E002C0880F991F13
:100210006A95E2F78095822388BB089528B381E030
:1002200090E002C0880F991F6A95E2F7822B88BB85
:10023000089541110CC025B381E090E002C0880F01
:10024000991F6A95E2F78095822385BB089525B3AF
:1002500081E090E002C0880F991F6A95E2F7822B37
:1002600085BB089541110CC022B381E090E002C02B
:10027000880F991F6A95E2F78095822382BB0895C3
:1002800022B381E090E002C0880F991F6A95E2F7DF
:10029000822B82BB089590E0FC01E154F109E43225
:1002A000F10558F4E25BFF4F0C94B7026ABB089566
:1002B00067BB089564BB089561BB089590E0FC019D
:1002C000E154F109E432F10558F4EE58FF4F0C9473
:1002D000B7026BBB089568BB089565BB089562BB08
:1002E000089590E0FC01E154F109E432F10508F0D1
:1002F00054C0EA56FF4F0C94B70249B381E090E036
:100300009C01062E02C0220F331F0A94E2F7842FAD
:1003100090E08223932302C0959587956A95E2F732
:10032000089546B381E090E09C01062E02C0220FA2
:10033000331F0A94E2F7842F90E08223932302C0B4
:10034000959587956A95E2F7089543B381E090E02B
:100350009C01062E02C0220F331F0A94E2F7842F5D
:1003600090E08223932302C0959587956A95E2F7E2
:10037000089540B381E090E09C01062E02C0220F58
:10038000331F0A94E2F7842F90E08223932302C064
:10039000959587956A95E2F708950895CF93C82FAC
:1003A00060EF0E944B016FEF8C2F0E945E01CF9196
:1003B0000895FF920F931F93CF93DF93D82F10E0F0
:1003C000FF24FA943CC004E0010F40E0602F8D2F21
:1003D0000E94DB00C0E02BC06C2F8D2F0E947101AA
:1003E000811124C02FE788E391E0215080409040A4
:1003F000E1F700C000006C2F8D2F0E947101811168
:100400000BC0EC2FF0E0EE0FFF1FEE0FFF1FE05AC6
:10041000FF4FE10FF11DF0802FEF81EE94E02150AE
:1004200080409040E1F700C0000003C0CF5FC430BF
:1004300098F241E0602F8D2F0E94DB001F5F143087
:1004400010F28F2DDF91CF911F910F91FF900895A2
:100450000E94A80281E60E94CE0181E60E94D90195
:1004600090E0FC01F097EA30F105B8F7E654FF4F51
:100470000C94B70282E50E94AF020E94B30281345D
:10048000E1F780E30E94AF02E8CF82E50E94AF026D
:100490000E94B3028134E1F781E30E94AF02DDCF15
:1004A00082E50E94AF020E94B3028134E1F782E349
:1004B0000E94AF02D2CF82E50E94AF020E94B30237
:1004C0008134E1F783E30E94AF02C7CF82E50E9447
:1004D000AF020E94B3028134E1F784E30E94AF02CD
:1004E000BCCF82E50E94AF020E94B3028134E1F7E3
:1004F00085E30E94AF02B1CF82E50E94AF020E9465
:10050000B3028134E1F786E30E94AF02A6CF82E511
:100510000E94AF020E94B3028134E1F787E30E9498
:10052000AF029BCF82E50E94AF020E94B3028134EA
:10053000E1F788E30E94AF0290CF82E50E94AF020C
:100540000E94B3028134E1F789E30E94AF0285CFB4
:1005500088E18AB986EA80BD83E389B908955D9B05
:10056000FECF8CB908955F9BFECF8CB10895EE0F3E
:0E057000FF1F0590F491E02D0994F894FFCF41
:10057E003738392F3435362A3132332D3F303D2B33
:00000001FF
